{
  "contractName": "JoosLoanManager",
  "abi": [
    {
      "constant": false,
      "inputs": [],
      "name": "renounceOwnership",
      "outputs": [],
      "payable": false,
      "stateMutability": "nonpayable",
      "type": "function"
    },
    {
      "constant": true,
      "inputs": [],
      "name": "owner",
      "outputs": [
        {
          "name": "",
          "type": "address"
        }
      ],
      "payable": false,
      "stateMutability": "view",
      "type": "function"
    },
    {
      "constant": true,
      "inputs": [],
      "name": "isOwner",
      "outputs": [
        {
          "name": "",
          "type": "bool"
        }
      ],
      "payable": false,
      "stateMutability": "view",
      "type": "function"
    },
    {
      "constant": false,
      "inputs": [
        {
          "name": "newOwner",
          "type": "address"
        }
      ],
      "name": "transferOwnership",
      "outputs": [],
      "payable": false,
      "stateMutability": "nonpayable",
      "type": "function"
    },
    {
      "inputs": [
        {
          "name": "_newOwner",
          "type": "address"
        }
      ],
      "payable": false,
      "stateMutability": "nonpayable",
      "type": "constructor"
    },
    {
      "anonymous": false,
      "inputs": [
        {
          "indexed": true,
          "name": "previousOwner",
          "type": "address"
        },
        {
          "indexed": true,
          "name": "newOwner",
          "type": "address"
        }
      ],
      "name": "OwnershipTransferred",
      "type": "event"
    },
    {
      "constant": true,
      "inputs": [
        {
          "name": "_id",
          "type": "uint256"
        }
      ],
      "name": "getLoanInfo",
      "outputs": [
        {
          "name": "amount",
          "type": "uint256"
        },
        {
          "name": "currency_type",
          "type": "uint8"
        },
        {
          "name": "period",
          "type": "uint256"
        },
        {
          "name": "percent",
          "type": "uint256"
        },
        {
          "name": "init_type",
          "type": "uint8"
        }
      ],
      "payable": false,
      "stateMutability": "view",
      "type": "function"
    },
    {
      "constant": true,
      "inputs": [
        {
          "name": "_id",
          "type": "uint256"
        }
      ],
      "name": "getLoanParticipants",
      "outputs": [
        {
          "name": "lender_id",
          "type": "uint256"
        },
        {
          "name": "lender_name",
          "type": "string"
        },
        {
          "name": "borrower_id",
          "type": "uint256"
        },
        {
          "name": "borrower_name",
          "type": "string"
        },
        {
          "name": "personal",
          "type": "string"
        }
      ],
      "payable": false,
      "stateMutability": "view",
      "type": "function"
    },
    {
      "constant": true,
      "inputs": [
        {
          "name": "_id",
          "type": "uint256"
        }
      ],
      "name": "getStatus",
      "outputs": [
        {
          "name": "",
          "type": "uint8"
        }
      ],
      "payable": false,
      "stateMutability": "view",
      "type": "function"
    },
    {
      "constant": false,
      "inputs": [
        {
          "name": "_id",
          "type": "uint256"
        },
        {
          "name": "_amount",
          "type": "uint256"
        },
        {
          "name": "_currency_type",
          "type": "uint8"
        },
        {
          "name": "_period",
          "type": "uint256"
        },
        {
          "name": "_percent",
          "type": "uint8"
        },
        {
          "name": "_init_type",
          "type": "uint8"
        }
      ],
      "name": "initLoan",
      "outputs": [
        {
          "name": "",
          "type": "bool"
        }
      ],
      "payable": false,
      "stateMutability": "nonpayable",
      "type": "function"
    },
    {
      "constant": false,
      "inputs": [
        {
          "name": "_loan_id",
          "type": "uint256"
        },
        {
          "name": "_lender_id",
          "type": "uint256"
        },
        {
          "name": "_lender_name",
          "type": "string"
        },
        {
          "name": "_borrower_id",
          "type": "uint256"
        },
        {
          "name": "_borrower_name",
          "type": "string"
        },
        {
          "name": "_personal",
          "type": "string"
        }
      ],
      "name": "setLoanParticipants",
      "outputs": [
        {
          "name": "",
          "type": "bool"
        }
      ],
      "payable": false,
      "stateMutability": "nonpayable",
      "type": "function"
    },
    {
      "constant": false,
      "inputs": [
        {
          "name": "_id",
          "type": "uint256"
        },
        {
          "name": "_status",
          "type": "uint8"
        }
      ],
      "name": "setStatus",
      "outputs": [
        {
          "name": "",
          "type": "bool"
        }
      ],
      "payable": false,
      "stateMutability": "nonpayable",
      "type": "function"
    },
    {
      "constant": true,
      "inputs": [
        {
          "name": "_id",
          "type": "uint256"
        }
      ],
      "name": "isDeclared",
      "outputs": [
        {
          "name": "",
          "type": "bool"
        }
      ],
      "payable": false,
      "stateMutability": "view",
      "type": "function"
    },
    {
      "constant": true,
      "inputs": [
        {
          "name": "_id",
          "type": "uint256"
        }
      ],
      "name": "isFull",
      "outputs": [
        {
          "name": "",
          "type": "bool"
        }
      ],
      "payable": false,
      "stateMutability": "view",
      "type": "function"
    },
    {
      "constant": true,
      "inputs": [
        {
          "name": "_id",
          "type": "uint256"
        }
      ],
      "name": "isOverdue",
      "outputs": [
        {
          "name": "",
          "type": "bool"
        }
      ],
      "payable": false,
      "stateMutability": "view",
      "type": "function"
    }
  ],
  "bytecode": "0x608060405234801561001057600080fd5b5060405160208061153c83398101806040528101908080519060200190929190505050336000806101000a81548173ffffffffffffffffffffffffffffffffffffffff021916908373ffffffffffffffffffffffffffffffffffffffff1602179055506000809054906101000a900473ffffffffffffffffffffffffffffffffffffffff1673ffffffffffffffffffffffffffffffffffffffff16600073ffffffffffffffffffffffffffffffffffffffff167f8be0079c531659141344cd1fd0a4f28419497f9722a3daafe3b4186f6b6457e060405160405180910390a36101078161010d640100000000026401000000009004565b5061029b565b61012461014a640100000000026401000000009004565b151561012f57600080fd5b610147816101a1640100000000026401000000009004565b50565b60008060009054906101000a900473ffffffffffffffffffffffffffffffffffffffff1673ffffffffffffffffffffffffffffffffffffffff163373ffffffffffffffffffffffffffffffffffffffff1614905090565b600073ffffffffffffffffffffffffffffffffffffffff168173ffffffffffffffffffffffffffffffffffffffff16141515156101dd57600080fd5b8073ffffffffffffffffffffffffffffffffffffffff166000809054906101000a900473ffffffffffffffffffffffffffffffffffffffff1673ffffffffffffffffffffffffffffffffffffffff167f8be0079c531659141344cd1fd0a4f28419497f9722a3daafe3b4186f6b6457e060405160405180910390a3806000806101000a81548173ffffffffffffffffffffffffffffffffffffffff021916908373ffffffffffffffffffffffffffffffffffffffff16021790555050565b611292806102aa6000396000f3006080604052600436106100c4576000357c0100000000000000000000000000000000000000000000000000000000900463ffffffff168062a5e0b8146100c95780630714012c1461010e5780635c622a0e146101775780636f40c136146101be578063715018a61461023e5780637dde2f6b146102555780638da5cb5b146103e15780638f32d59b1461043857806390e53d1a14610467578063d22a0d0f146104ac578063d896dd64146104f1578063f2fde38b14610543578063ffa4fb0114610586575b600080fd5b3480156100d557600080fd5b506100f4600480360381019080803590602001909291905050506106b1565b604051808215151515815260200191505060405180910390f35b34801561011a57600080fd5b50610139600480360381019080803590602001909291905050506106e7565b604051808681526020018560ff1660ff1681526020018481526020018381526020018260ff1660ff1681526020019550505050505060405180910390f35b34801561018357600080fd5b506101a2600480360381019080803590602001909291905050506107a2565b604051808260ff1660ff16815260200191505060405180910390f35b3480156101ca57600080fd5b506102246004803603810190808035906020019092919080359060200190929190803560ff16906020019092919080359060200190929190803560ff169060200190929190803560ff16906020019092919050505061081c565b604051808215151515815260200191505060405180910390f35b34801561024a57600080fd5b5061025361099f565b005b34801561026157600080fd5b5061028060048036038101908080359060200190929190505050610a71565b60405180868152602001806020018581526020018060200180602001848103845288818151815260200191508051906020019080838360005b838110156102d45780820151818401526020810190506102b9565b50505050905090810190601f1680156103015780820380516001836020036101000a031916815260200191505b50848103835286818151815260200191508051906020019080838360005b8381101561033a57808201518184015260208101905061031f565b50505050905090810190601f1680156103675780820380516001836020036101000a031916815260200191505b50848103825285818151815260200191508051906020019080838360005b838110156103a0578082015181840152602081019050610385565b50505050905090810190601f1680156103cd5780820380516001836020036101000a031916815260200191505b509850505050505050505060405180910390f35b3480156103ed57600080fd5b506103f6610cdd565b604051808273ffffffffffffffffffffffffffffffffffffffff1673ffffffffffffffffffffffffffffffffffffffff16815260200191505060405180910390f35b34801561044457600080fd5b5061044d610d06565b604051808215151515815260200191505060405180910390f35b34801561047357600080fd5b5061049260048036038101908080359060200190929190505050610d5d565b604051808215151515815260200191505060405180910390f35b3480156104b857600080fd5b506104d760048036038101908080359060200190929190505050610d93565b604051808215151515815260200191505060405180910390f35b3480156104fd57600080fd5b5061052960048036038101908080359060200190929190803560ff169060200190929190505050610dcd565b604051808215151515815260200191505060405180910390f35b34801561054f57600080fd5b50610584600480360381019080803573ffffffffffffffffffffffffffffffffffffffff169060200190929190505050610e8b565b005b34801561059257600080fd5b506106976004803603810190808035906020019092919080359060200190929190803590602001908201803590602001908080601f016020809104026020016040519081016040528093929190818152602001838380828437820191505050505050919291929080359060200190929190803590602001908201803590602001908080601f0160208091040260200160405190810160405280939291908181526020018383808284378201915050505050509192919290803590602001908201803590602001908080601f0160208091040260200160405190810160405280939291908181526020018383808284378201915050505050509192919290505050610eaa565b604051808215151515815260200191505060405180910390f35b6000600160ff1660016000848152602001908152602001600020600a0160009054906101000a900460ff1660ff16149050919050565b600080600080600060016000878152602001908152602001600020600501546001600088815260200190815260200160002060060160009054906101000a900460ff166001600089815260200190815260200160002060070154600160008a815260200190815260200160002060080160009054906101000a900460ff16600160008b815260200190815260200160002060080160019054906101000a900460ff168160ff1691509450945094509450945091939590929450565b6000600160ff1660016000848152602001908152602001600020600a0160019054906101000a900460ff1660ff161480156107e257506107e182610d93565b5b156107f05760049050610817565b60016000838152602001908152602001600020600a0160019054906101000a900460ff1690505b919050565b6000610826610d06565b151561083157600080fd5b600060ff1660016000898152602001908152602001600020600a0160009054906101000a900460ff1660ff1614151561086957600080fd5b866001600089815260200190815260200160002060000181905550856001600089815260200190815260200160002060050181905550846001600089815260200190815260200160002060060160006101000a81548160ff021916908360ff160217905550836001600089815260200190815260200160002060070181905550826001600089815260200190815260200160002060080160006101000a81548160ff021916908360ff160217905550816001600089815260200190815260200160002060080160016101000a81548160ff021916908360ff1602179055506001806000898152602001908152602001600020600a0160006101000a81548160ff021916908360ff1602179055504260016000898152602001908152602001600020600b0181905550600190509695505050505050565b6109a7610d06565b15156109b257600080fd5b600073ffffffffffffffffffffffffffffffffffffffff166000809054906101000a900473ffffffffffffffffffffffffffffffffffffffff1673ffffffffffffffffffffffffffffffffffffffff167f8be0079c531659141344cd1fd0a4f28419497f9722a3daafe3b4186f6b6457e060405160405180910390a360008060006101000a81548173ffffffffffffffffffffffffffffffffffffffff021916908373ffffffffffffffffffffffffffffffffffffffff160217905550565b6000606060006060806001600087815260200190815260200160002060010160000154600160008881526020019081526020016000206001016001016001600089815260200190815260200160002060030160000154600160008a8152602001908152602001600020600301600101600160008b8152602001908152602001600020600901838054600181600116156101000203166002900480601f016020809104026020016040519081016040528092919081815260200182805460018160011615610100020316600290048015610b8b5780601f10610b6057610100808354040283529160200191610b8b565b820191906000526020600020905b815481529060010190602001808311610b6e57829003601f168201915b50505050509350818054600181600116156101000203166002900480601f016020809104026020016040519081016040528092919081815260200182805460018160011615610100020316600290048015610c275780601f10610bfc57610100808354040283529160200191610c27565b820191906000526020600020905b815481529060010190602001808311610c0a57829003601f168201915b50505050509150808054600181600116156101000203166002900480601f016020809104026020016040519081016040528092919081815260200182805460018160011615610100020316600290048015610cc35780601f10610c9857610100808354040283529160200191610cc3565b820191906000526020600020905b815481529060010190602001808311610ca657829003601f168201915b505050505090509450945094509450945091939590929450565b60008060009054906101000a900473ffffffffffffffffffffffffffffffffffffffff16905090565b60008060009054906101000a900473ffffffffffffffffffffffffffffffffffffffff1673ffffffffffffffffffffffffffffffffffffffff163373ffffffffffffffffffffffffffffffffffffffff1614905090565b6000600260ff1660016000848152602001908152602001600020600a0160009054906101000a900460ff1660ff16149050919050565b6000600160008381526020019081526020016000206007015460016000848152602001908152602001600020600b01540142119050919050565b6000610dd7610d06565b1515610de257600080fd5b600160ff168260ff161480610dfd5750600260ff168260ff16145b80610e0e5750600360ff168260ff16145b1515610e1957600080fd5b600260ff1660016000858152602001908152602001600020600a0160019054906101000a900460ff1660ff1614151515610e5257600080fd5b8160016000858152602001908152602001600020600a0160016101000a81548160ff021916908360ff1602179055506001905092915050565b610e93610d06565b1515610e9e57600080fd5b610ea78161102d565b50565b6000610eb4611127565b610ebc611127565b610ec4610d06565b1515610ecf57600080fd5b610ed8896106b1565b1515610ee357600080fd5b6040805190810160405280898152602001888152509150604080519081016040528087815260200186815250905081600160008b8152602001908152602001600020600101600082015181600001556020820151816001019080519060200190610f4e929190611141565b5090505080600160008b8152602001908152602001600020600301600082015181600001556020820151816001019080519060200190610f8f929190611141565b5090505083600160008b81526020019081526020016000206009019080519060200190610fbd9291906111c1565b506002600160008b8152602001908152602001600020600a0160006101000a81548160ff021916908360ff16021790555060018060008b8152602001908152602001600020600a0160016101000a81548160ff021916908360ff1602179055506001925050509695505050505050565b600073ffffffffffffffffffffffffffffffffffffffff168173ffffffffffffffffffffffffffffffffffffffff161415151561106957600080fd5b8073ffffffffffffffffffffffffffffffffffffffff166000809054906101000a900473ffffffffffffffffffffffffffffffffffffffff1673ffffffffffffffffffffffffffffffffffffffff167f8be0079c531659141344cd1fd0a4f28419497f9722a3daafe3b4186f6b6457e060405160405180910390a3806000806101000a81548173ffffffffffffffffffffffffffffffffffffffff021916908373ffffffffffffffffffffffffffffffffffffffff16021790555050565b604080519081016040528060008152602001606081525090565b828054600181600116156101000203166002900490600052602060002090601f016020900481019282601f1061118257805160ff19168380011785556111b0565b828001600101855582156111b0579182015b828111156111af578251825591602001919060010190611194565b5b5090506111bd9190611241565b5090565b828054600181600116156101000203166002900490600052602060002090601f016020900481019282601f1061120257805160ff1916838001178555611230565b82800160010185558215611230579182015b8281111561122f578251825591602001919060010190611214565b5b50905061123d9190611241565b5090565b61126391905b8082111561125f576000816000905550600101611247565b5090565b905600a165627a7a72305820a966405a51e2a8a1567a7bf8132b121a40edf7e776cdc089d21666911fe1ccca0029",
  "source": "pragma solidity ^0.4.24;\n\nimport \"../node_modules/openzeppelin-solidity/contracts/ownership/Ownable.sol\";\n\ncontract JoosLoanManager is Ownable {\n\n    uint8 constant FILLING_STAGE_NOT_DECLARED = 0;\n    uint8 constant FILLING_STAGE_DECLARED = 1;\n    uint8 constant FILLING_STAGE_FULL = 2;\n\n    uint8 constant STATUS_DEFAULT = 0;\n    uint8 constant STATUS_SIGNED = 1;\n    uint8 constant STATUS_PAID = 2;\n    uint8 constant STATUS_PAUSED = 3;\n    uint8 constant STATUS_OVERDUE = 4;\n\n    struct Loan {\n        uint id;\n        User lender;\n        User borrower;\n        uint amount;\n        uint8 currency_type;\n        uint period;\n        uint8 percent;\n        uint8 init_type;\n        string personal;\n        uint8 filling_stage ;\n        uint8 status;\n        uint created_at;\n    }\n\n    struct User {\n        uint id;\n        string name;\n    }\n\n    mapping(uint => Loan) private loans;\n\n    constructor(address _newOwner) public {\n        transferOwnership(_newOwner);\n    }\n\n\n    function getLoanInfo(uint _id)\n    public\n    view\n    returns (\n        uint amount,\n        uint8 currency_type,\n        uint period,\n        uint percent,\n        uint8 init_type\n    ) {\n        return (\n        loans[_id].amount,\n        loans[_id].currency_type,\n        loans[_id].period,\n        loans[_id].percent,\n        loans[_id].init_type\n        );\n    }\n\n    function getLoanParticipants(uint _id)\n    public\n    view\n    returns (\n        uint lender_id,\n        string memory lender_name,\n        uint borrower_id,\n        string memory borrower_name,\n        string memory personal\n    ) {\n        return (\n        loans[_id].lender.id,\n        loans[_id].lender.name,\n        loans[_id].borrower.id,\n        loans[_id].borrower.name,\n        loans[_id].personal\n        );\n\n    }\n\n    function getStatus(uint _id) public view returns(uint8) {\n        if (loans[_id].status == STATUS_SIGNED && isOverdue(_id)) {\n            return STATUS_OVERDUE;\n        }\n        return loans[_id].status;\n    }\n\n    function initLoan(\n        uint _id,\n        uint _amount,\n        uint8 _currency_type,\n        uint _period,\n        uint8 _percent,\n        uint8 _init_type\n    ) public onlyOwner returns (bool) {\n\n        require(loans[_id].filling_stage == FILLING_STAGE_NOT_DECLARED);\n\n        loans[_id].id = _id;\n        loans[_id].amount = _amount;\n        loans[_id].currency_type = _currency_type;\n        loans[_id].period = _period;\n        loans[_id].percent = _percent;\n        loans[_id].init_type = _init_type;\n        loans[_id].filling_stage = FILLING_STAGE_DECLARED;\n        loans[_id].created_at = block.timestamp;\n        return true;\n    }\n\n    function setLoanParticipants(\n        uint _loan_id,\n        uint _lender_id,\n        string memory _lender_name,\n        uint _borrower_id,\n        string memory _borrower_name,\n        string memory _personal\n    ) public onlyOwner returns  (bool) {\n        require(isDeclared(_loan_id));\n\n        User memory lender = User({\n            id : _lender_id,\n            name : _lender_name\n            });\n        User memory borrower = User({\n            id : _borrower_id,\n            name : _borrower_name\n            });\n\n        loans[_loan_id].lender = lender;\n        loans[_loan_id].borrower = borrower;\n        loans[_loan_id].personal = _personal;\n        loans[_loan_id].filling_stage = FILLING_STAGE_FULL;\n        loans[_loan_id].status = STATUS_SIGNED;\n\n        return true;\n\n    }\n\n    function setStatus(uint _id, uint8 _status) public onlyOwner returns(bool) {\n        require(_status == STATUS_SIGNED || _status == STATUS_PAID || _status == STATUS_PAUSED);\n        require(loans[_id].status != STATUS_PAID);\n        loans[_id].status = _status;\n        return true;\n    }\n\n    function isDeclared(uint _id) public view returns(bool) {\n        return loans[_id].filling_stage == FILLING_STAGE_DECLARED;\n    }\n\n    function isFull(uint _id) public view returns(bool) {\n        return loans[_id].filling_stage == FILLING_STAGE_FULL;\n    }\n\n    function isOverdue(uint _id) public view returns(bool) {\n        return (block.timestamp > loans[_id].created_at + loans[_id].period);\n    }\n\n}",
  "sourcePath": "/home/dev60/www/joos_smart_contract/contracts/JoosLoanManager.sol",
  "compiler": {
    "name": "solc",
    "version": "0.4.24+commit.e67f0147.Emscripten.clang"
  },
  "schemaVersion": "2.0.1",
  "updatedAt": "2019-01-09T09:23:59.388Z"
}